:020000040800F2
:1000000000800120C5100008810F0008870F00083C
:100010008D0F0008930F0008990F000800000000E2
:100020000000000000000000000000009F0F00081A
:10003000AD0F000800000000BB0F0008C90F00084A
:1000400015110008151100081511000815110008F8
:1000500015110008151100081511000815110008E8
:1000600015110008151100081511000815110008D8
:1000700015110008151100081511000815110008C8
:1000800015110008151100081511000800000000E6
:100090000000000000000000000000001511000832
:1000A0001511000815110008151100081511000898
:1000B0001511000815110008D50F000815110008CA
:1000C0001511000815110008151100081511000878
:1000D0001511000815110008151100080000000096
:1000E0000D1000081511000815110008000000008F
:1000F00000000000000000000000000015110008D2
:100100000000000015110008151100081511000865
:1001100000000000000000000000000000000000DF
:100120001511000815110008151100081511000817
:100130001511000800000000000000000000000091
:100140000000000000000000000000001511000881
:1001500015110008151100081511000815110008E7
:100160001511000815110008000000000000000033
:10017000000000000000000000000000000000007F
:100180000000000015110008000000000000000041
:04019000151100083D
:1001A00010B5054C237833B9044B13B10448AFF3B1
:1001B00000800123237010BD90000020000000008B
:1001C000442E000808B5034B1BB103490348AFF3A5
:1001D000008008BD0000000094000020442E0008AC
:1001E00001F0FF01102A2BDB10F0070F08D010F8E8
:1001F000013B013A8B422DD010F0070F42B3F6D1EC
:10020000F0B441EA012141EA014122F007047FF004
:1002100000070023F0E80256083C85EA010586EA5B
:10022000010685FA47F5A3FA87F586FA47F6A5FA97
:1002300087F68EB9EED1F0BC01F0FF0102F00702A3
:1002400032B110F8013B013A83EA010313B1F8D14E
:100250000020704701387047002D06BF354603382F
:10026000073815F0010F07D1013015F4807F02BF68
:10027000013015F4C03F0130F0BC0138704700BFB9
:1002800053B94AB9002908BF00281CBF4FF0FF31FD
:100290004FF0FF3000F072B9ADF1080C6DE904CEFB
:1002A00000F006F8DDF804E0DDE9022304B0704751
:1002B0002DE9F047089E04468846002B4BD18A4220
:1002C000154667D9B2FA82F24AB1C2F1200701FAA3
:1002D00002F320FA07F7954047EA030894404FEAF3
:1002E000154E230CB8FBFEF71FFA85FC0EFB178892
:1002F00043EA084307FB0CF1994209D9EB1807F1CF
:10030000FF3080F01B81994240F21881023F2B445C
:100310005B1AA4B2B3FBFEF00EFB103344EA0344B5
:1003200000FB0CFCA44509D92C1900F1FF3380F027
:100330000781A44540F2048102382C4440EA07407A
:10034000A4EB0C0400271EB1D4400023C6E90043EF
:100350003946BDE8F0878B4209D9002E00F0EB80CA
:100360000027C6E9000138463946BDE8F087B3FAF0
:1003700083F7002F47D18B4202D3824200F2FA80EA
:10038000841A61EB030301209846002EE0D0C6E9F1
:100390000048DDE702B9FFDEB2FA82F2002A40F03F
:1003A0008F80491B4FEA154E1FFA85F80127B1FBD4
:1003B000FEFC230C0EFB1C1143EA014308FB0CF16D
:1003C000994207D9EB180CF1FF3002D2994200F2A2
:1003D000CD808446591AA3B2B1FBFEF00EFB101477
:1003E00043EA044408FB00F8A04507D92C1900F1A2
:1003F000FF3302D2A04500F2B6801846A4EB0804F1
:1004000040EA0C409FE7C7F1200CBB4022FA0CFEEB
:100410004EEA030E01FA07F420FA0CF521FA0CF368
:100420004FEA1E482543B3FBF8F92C0C08FB19339F
:100430001FFA8EFA44EA034309FB0AF49C4202FACB
:1004400007F200FA07F10BD91EEB030309F1FF30A5
:1004500080F087809C4240F28480A9F102097344B5
:100460001B1BADB2B3FBF8F008FB103345EA0344A5
:1004700000FB0AFAA24508D91EEB040400F1FF3381
:100480006BD2A24569D90238744440EA0940A0FB06
:100490000289A4EB0A044C45C2464B4654D351D0C2
:1004A000002E69D0B1EB0A0564EB030404FA0CFCDE
:1004B000FD40FC404CEA0505C6E90054002747E72B
:1004C000C2F1200320FA03F7954001FA02F021FA65
:1004D00003F34FEA154E3843010CB3FBFEF71FFA46
:1004E00085F80EFB173341EA034107FB08F38B4203
:1004F00004FA02F407D9691807F1FF3C2FD28B42A6
:100500002DD9023F2944CB1A81B2B3FBFEF00EFB7A
:10051000103341EA034100FB08F38B4207D9691805
:1005200000F1FF3C17D28B4215D902382944C91A71
:1005300040EA07473BE73746304609E70746E7E624
:100540001846FBE64145ABD2B8EB020A69EB0E0256
:1005500001381346A4E76046E9E7184695E7674681
:10056000D1E781467CE702382C4447E7ACF1020C26
:100570002B442FE7384608E73746E9E6704700BFC7
:1005800080B483B000AF786002E07B68013B7B60A1
:100590007B68002BF9D100BF0C37BD465DF8047BAA
:1005A000704780B500AF4FF47A70FFF7E9FF00BFE6
:1005B00080BD000080B400AF0C4B4FF400029A6184
:1005C0000A4B4FF080729A61084B4FF000729A61AB
:1005D000064B4FF080629A61044B4FF000629A61C3
:1005E00000BFBD465DF8047B704700BF000C0240B1
:1005F00080B582B000AF0346FB71484B4FF48002D8
:100600009A61FFF7D7FFFFF7CCFF444B5B69434A82
:1006100043F080035361FB7903F01003002B04D0F7
:100620003E4B4FF480729A6103E03C4B4FF0807276
:100630009A61FB7903F02003002B04D0374B4FF471
:1006400000729A6103E0354B4FF000729A61FB79BA
:1006500003F04003002B04D0304B4FF480629A61CA
:1006600003E02E4B4FF080629A6197F90730002B20
:1006700004DA2A4B4FF400629A6103E0274B4FF0F3
:1006800000629A61FFF78DFFFFF794FFFFF789FF84
:10069000224B5B69214A43F080035361FB7903F0ED
:1006A0000103002B04D01D4B4FF480729A6103E0CC
:1006B0001A4B4FF080729A61FB7903F00203002B12
:1006C00004D0164B4FF400729A6103E0134B4FF0C5
:1006D00000729A61FB7903F00403002B04D00F4BE6
:1006E0004FF480629A6103E00C4B4FF080629A6194
:1006F000FB7903F00803002B04D0084B4FF4006291
:100700009A6103E0054B4FF000629A61FFF749FFE1
:10071000FFF750FF00BF0837BD4680BD000C024008
:1007200080B582B000AF0346FB71494B5B69484A14
:1007300043F040035361FFF73DFFFFF732FF444BA7
:100740005B69434A43F080035361FB7903F0100374
:10075000002B04D03E4B4FF480729A6103E03C4B77
:100760004FF080729A61FB7903F02003002B04D0D4
:10077000374B4FF400729A6103E0354B4FF0007233
:100780009A61FB7903F04003002B04D0304B4FF407
:1007900080629A6103E02E4B4FF080629A6197F974
:1007A0000730002B04DA2A4B4FF400629A6103E011
:1007B000274B4FF000629A61FFF7F3FEFFF7FAFE56
:1007C000FFF7EFFE224B5B69214A43F08003536140
:1007D000FB7903F00103002B04D01D4B4FF4807212
:1007E0009A6103E01A4B4FF080729A61FB7903F033
:1007F0000203002B04D0164B4FF400729A6103E001
:10080000134B4FF000729A61FB7903F00403002B45
:1008100004D00F4B4FF480629A6103E00C4B4FF011
:1008200080629A61FB7903F00803002B04D0084B27
:100830004FF400629A6103E0054B4FF000629A6149
:10084000FFF7AFFEFFF7B6FE00BF0837BD4680BD1D
:10085000000C024080B582B000AF786008E0FFF77E
:10086000A0FE7B685A1C7A601B781846FFF758FF79
:100870007B681B78002BF2D1FFF793FE00BF08378F
:10088000BD4680BD80B582B000AF0346FB710B460C
:10089000BB7113467B71FA2000F0B0FC0220FFF719
:1008A000A7FE322000F0AAFCFA79BB791343DAB232
:1008B0007B791343DBB243F02003DBB21846FFF72A
:1008C00097FE322000F09AFC0620FFF791FE3220BE
:1008D00000F094FC0E20FFF78BFE322000F08EFC1F
:1008E0000C20FFF785FE322000F088FC0120FFF786
:1008F0007FFE642000F082FC00BF0837BD4680BD4B
:1009000080B582B000AF03460A46FB711346BB7147
:10091000FB79012B06D1BB797F33DBB21846FFF799
:1009200067FE08E0FB79022B05D1BB79413BDBB2C6
:100930001846FFF75DFE00BF0837BD4680BD80B595
:1009400082B000AF03463A60FB710B46BB71BA79C7
:10095000FB7911461846FFF7D3FF3868FFF77AFF97
:1009600000BF0837BD4680BD80B500AF0120FFF74E
:100970003FFE022000F042FC00BF80BD80B500AF0A
:100980001E4B1B68012B0DD1002210211C4800F0CA
:1009900003FF002220211A4800F0FEFE082118481B
:1009A00000F013FF154B1B68022B0DD1002208210C
:1009B000134800F0F1FE00222021114800F0ECFE67
:1009C00010210F4800F001FF0C4B1B68032B0DD1C9
:1009D000002210210A4800F0DFFE0022082108480A
:1009E00000F0DAFE2021064800F0EFFE054B1B6800
:1009F0000133044A136000BF80BD00BFAC0000207B
:100A0000000C0240C400002080B483B000AF7860C6
:100A100000BF084B1B68642202FB03F37A689A420A
:100A2000F7DC044B00221A6000BF0C37BD465DF8AE
:100A3000047B7047C400002080B582B000AF01F095
:100A4000BFFD0246184B83FB02139911D317CB1A33
:100A500040F2911101FB03F3D31A64337B6001224E
:100A60000221124800F098FE7868FFF7CDFF0022BF
:100A700002210E4800F090FE01F0A2FD02460A4B52
:100A800083FB02139911D317CB1A40F2911101FB8A
:100A900003F3D31A64337B607868FFF7B5FF00BFB8
:100AA0000837BD4680BD00BF699CDB28000C0240B2
:100AB00080B582B000AF0346FB80FB88B3F5805F52
:100AC0000BD1174B01221A60164B00221A60FFF758
:100AD0004BFF1420FFF798FF1EE0FB88B3F5005F83
:100AE00008D10F4B02221A60FFF73EFF1420FFF7D8
:100AF0008BFF11E0FB88B3F5804F0DD1084B03222B
:100B00001A60094B00221A60084B00221A60FFF796
:100B10002BFF1420FFF778FF00BF0837BD4680BDCC
:100B2000AC000020C0000020B4000020B000002075
:100B300080B500AF00F0F0FA00F0CAF800F076F9E6
:100B400000F026F9082200210020FFF79BFE504804
:100B500001F0A1FAC820FFF757FFFFF705FF4D4A44
:100B600001210120FFF7EBFE4B4A01210220FFF794
:100B7000E6FE4FF4FA70FFF747FFFFF7F5FE474A2E
:100B800001210120FFF7DBFE6420FFF73DFF444B0E
:100B90001B68012B47D1FFF74FFF0421414800F0AC
:100BA000E3FD0346012B10D03F4B1B6801333E4A47
:100BB00013603D4B1B68042B07DD3C4B1B68013366
:100BC0003A4A1360384B00221A60384B1B681A46A9
:100BD0003749384801F028FD364A01210120FFF746
:100BE000AEFE314B1B681A463349344801F01CFDF8
:100BF0002D4B1B68324A13602C4B1B68314A136023
:100C0000304B1A6813469B001A442D4B1B68134443
:100C10002D4A1360294A01210220FFF790FE64202B
:100C2000FFF7F2FEB3E71E4B1B68022B1BD11F4BD5
:100C30001B681A461E491F4801F0F6FC1D4A012197
:100C40000120FFF77CFE184B1B681A461A491B4807
:100C500001F0EAFC194A01210220FFF770FE64202E
:100C6000FFF7D2FE93E70E4B1B68032B8FD1164B79
:100C70001B681A4615490F4801F0D6FC0D4A0121A0
:100C80000120FFF75CFE6420FFF7BEFE7FE700BF98
:100C9000D40000205C2E0008702E0008842E00086E
:100CA000AC000020000C0240B4000020B000002086
:100CB000942E000800000020A82E0008100000203C
:100CC000B8000020BC000020C0000020B42E0008A6
:100CD00080B594B000AF07F1200330220021184600
:100CE00001F066FC07F10C0300221A605A609A605A
:100CF000DA601A610023BB60234B1B6C224A43F06D
:100D000080531364204B1B6C03F08053BB60BB68A3
:100D100000237B601D4B1B6823F440431B4A43F4B4
:100D200000431360194B1B6803F440437B607B68EE
:100D300002233B620123FB6210233B630023BB635E
:100D400007F12003184600F073FD0346002B01D085
:100D500000F0C2F80F23FB6000233B6100237B619E
:100D60000023BB610023FB6107F10C03002118463F
:100D700000F0CEFF0346002B01D000F0ADF800BF1D
:100D80005037BD4680BD00BF0038024000700040B3
:100D900080B586B000AF07F1080300221A605A60E0
:100DA0009A60DA603B4600221A605A601D4B1E4A68
:100DB0001A601C4B43F67F625A601A4B00229A60FD
:100DC000184B6322DA60174B00221A61154B002280
:100DD0009A61144801F034F90346002B01D000F069
:100DE0007BF84FF48053BB6007F1080319460D48A8
:100DF00001F075F90346002B01D000F06DF80023D7
:100E00003B6000237B603B461946064801F038FBF7
:100E10000346002B01D000F05FF800BF1837BD4635
:100E200080BD00BFD40000200008004080B586B01F
:100E300000AF3B1D00221A605A609A60DA601A61A6
:100E400000233B60214B1B6B204A43F008031363D4
:100E50001E4B1B6B03F008033B603B68002240F60F
:100E6000FA711B4800F098FC40F6FA737B6001238E
:100E7000BB600023FB6000233B613B1D1946144807
:100E800000F0F0FA4FF4E0437B60124BBB600023AC
:100E9000FB603B1D19460E4800F0E4FA04237B601A
:100EA0000023BB600023FB603B1D1946084800F08F
:100EB000D9FA00220121282000F09DFA282000F014
:100EC000B6FA00BF1837BD4680BD00BF00380240EB
:100ED000000C02400000111080B400AF72B6FEE7B3
:100EE00080B483B000AF00237B60104B5B6C0F4A73
:100EF00043F4804353640D4B5B6C03F480437B608D
:100F00007B6800233B60094B1B6C084A43F080530D
:100F10001364064B1B6C03F080533B603B6800BFBF
:100F20000C37BD465DF8047B704700BF00380240B7
:100F300080B584B000AF78607B681B680E4A93422E
:100F400015D10023FB600D4B1B6C0C4A43F00403CE
:100F500013640A4B1B6C03F00403FB60FB68002264
:100F600000211E2000F047FA1E2000F060FA00BFAA
:100F70001037BD4680BD00BF000800400038024069
:100F800080B400AFFEE780B400AFFEE780B400AFEE
:100F9000FEE780B400AFFEE780B400AFFEE780B4A8
:100FA00000AF00BFBD465DF8047B704780B400AF62
:100FB00000BFBD465DF8047B704780B400AF00BF42
:100FC000BD465DF8047B704780B500AF00F0F6F8D1
:100FD00000BF80BD80B500AF0B4B1B681B6903F0E1
:100FE0000103012B0DD1084B1B68DB6803F00103E3
:100FF000012B06D1044B1B686FF001021A61FFF749
:10100000BDFC00BF80BD00BFD400002080B500AF94
:101010004FF4805000F0F4FB4FF4005000F0F0FB70
:101020004FF4804000F0ECFB00BF80BD80B586B07F
:1010300000AF7860144A154BD31A7B617B693B6122
:10104000134B1B68002B02D1114B124A1A60104B34
:101050001A687B6813443A699A4207D201F07EFA13
:1010600002460C2313604FF0FF3309E0084B1B6866
:10107000FB60074B1A687B681344054A1360FB68E2
:1010800018461837BD4680BD0080012000040000CE
:10109000C80000202001002080B400AF084BD3F826
:1010A0008830074A43F47003C2F88830044B4FF08D
:1010B00000629A6000BFBD465DF8047B704700BFC8
:1010C00000ED00E0DFF834D0002103E00C4B5B586A
:1010D000435004310B480C4B42189A42F6D30B4A4A
:1010E00002E0002342F8043B094B9A42F9D3FFF790
:1010F000D3FF01F039FAFFF71BFD70470080012094
:10110000182F000800000020900000209000002010
:101110001C010020FEE7000080B500AF0E4B1B68ED
:101120000D4A43F4007313600B4B1B680A4A43F4E7
:1011300080631360084B1B68074A43F48073136095
:10114000032000F04DF9002000F008F8FFF7C8FE7A
:101150000023184680BD00BF003C024080B582B02D
:1011600000AF7860124B1A68124B1B7819464FF487
:101170007A73B3FBF1F3B2FBF3F3184600F065F9B1
:101180000346002B01D001230EE07B680F2B0AD809
:10119000002279684FF0FF3000F02DF9064A7B6895
:1011A0001360002300E0012318460837BD4680BDC8
:1011B00020000020280000202400002080B400AF80
:1011C000064B1B781A46064B1B681344044A1360EF
:1011D00000BFBD465DF8047B704700BF28000020BB
:1011E0001401002080B400AF034B1B681846BD46B5
:1011F0005DF8047B704700BF1401002080B584B007
:1012000000AF7860FFF7EEFFB8607B68FB60FB68BB
:10121000B3F1FF3F05D0094B1B781A46FB68134416
:10122000FB6000BFFFF7DEFF0246BB68D31AFA6817
:101230009A42F7D800BF1037BD4680BD2800002075
:1012400080B485B000AF78607B6803F00703FB6073
:101250000C4BDB68BB60BA684FF6FF031340BB6002
:10126000FB681A02BB68134343F0BF6343F40033C7
:10127000BB60044ABB68D36000BF1437BD465DF84D
:10128000047B704700ED00E080B400AF044BDB68E6
:101290001B0A03F007031846BD465DF8047B704740
:1012A00000ED00E080B483B000AF0346FB7197F916
:1012B0000730002B0BDBFB7903F01F02074997F97E
:1012C00007305B09012000FA02F241F8232000BF39
:1012D0000C37BD465DF8047B704700BF00E100E0BD
:1012E00080B483B000AF03463960FB7197F90730D3
:1012F000002B0ADB3B68DAB20C4997F90730120180
:10130000D2B20B4483F800230AE03B68DAB2084902
:10131000FB7903F00F03043B1201D2B20B441A769F
:1013200000BF0C37BD465DF8047B704700E100E06C
:1013300000ED00E080B489B000AFF860B9607A6079
:10134000FB6803F00703FB61FB69C3F10703042B90
:1013500028BF0423BB61FB690433062B02D9FB6958
:10136000033B00E000237B614FF0FF32BB6902FAD0
:1013700003F3DA43BB681A407B699A404FF0FF31B0
:101380007B6901FA03F3D9437B680B40134318468A
:101390002437BD465DF8047B7047000080B582B0FD
:1013A00000AF78607B68013BB3F1807F01D30123FC
:1013B0000FE00A4A7B68013B53600F214FF0FF307A
:1013C000FFF78EFF054B00229A60044B07221A603C
:1013D000002318460837BD4680BD00BF10E000E07E
:1013E00080B582B000AF78607868FFF729FF00BF52
:1013F0000837BD4680BD80B586B000AF0346B960F2
:101400007A60FB7300237B61FFF73EFF78617A68A7
:10141000B9687869FFF78EFF024697F90F301146D9
:101420001846FFF75DFF00BF1837BD4680BD80B589
:1014300082B000AF0346FB7197F907301846FFF7FB
:1014400031FF00BF0837BD4680BD80B582B000AF18
:1014500078607868FFF7A2FF034618460837BD4654
:1014600080BD000080B489B000AF7860396000238F
:101470007B6100233B610023BB610023FB6159E1D9
:101480000122FB6902FA03F37B613B681B687A69FE
:1014900013403B613A697B699A4240F048813B685E
:1014A0005B68012B0BD03B685B68022B07D03B6865
:1014B0005B68112B03D03B685B68122B30D17B68D3
:1014C0009B68BB61FB695B00032202FA03F3DB4309
:1014D000BA691340BB613B68DA68FB695B0002FADA
:1014E00003F3BA691343BB617B68BA699A607B688E
:1014F0005B68BB610122FB6902FA03F3DB43BA6953
:101500001340BB613B685B681B0903F00102FB6988
:1015100002FA03F3BA691343BB617B68BA695A6084
:101520007B68DB68BB61FB695B00032202FA03F3A3
:10153000DB43BA691340BB613B689A68FB695B0097
:1015400002FA03F3BA691343BB617B68BA69DA60D4
:101550003B685B68022B03D03B685B68122B23D18E
:10156000FB69DA087B68083253F82230BB61FB69FB
:1015700003F007039B000F2202FA03F3DB43BA696F
:101580001340BB613B681A69FB6903F007039B00CA
:1015900002FA03F3BA691343BB61FB69DA087B689B
:1015A0000832B96943F822107B681B68BB61FB698C
:1015B0005B00032202FA03F3DB43BA691340BB6109
:1015C0003B685B6803F00302FB695B0002FA03F30C
:1015D000BA691343BB617B68BA691A603B685B6890
:1015E00003F08053002B00F0A2800023FB60564BD9
:1015F0005B6C554A43F480435364534B5B6C03F478
:101600008043FB60FB68514AFB699B08023352F838
:101610002330BB61FB6903F003039B000F2202FA36
:1016200003F3DB43BA691340BB617B68484A9342CA
:1016300019D07B68474A934213D07B68464A93424D
:101640000DD07B68454A934207D07B68444A934259
:1016500001D1042308E0072306E0032304E002236A
:1016600002E0012300E00023FA6902F00302920085
:101670009340BA691343BB613449FB699B08023349
:10168000BA6941F82320374B1B68BB613B69DB43D8
:10169000BA691340BB613B685B6803F48033002B7D
:1016A00003D0BA693B691343BB612E4ABB6913601F
:1016B0002C4B5B68BB613B69DB43BA691340BB6180
:1016C0003B685B6803F40033002B03D0BA693B69C5
:1016D0001343BB61234ABB695360224B9B68BB61C8
:1016E0003B69DB43BA691340BB613B685B6803F449
:1016F0008013002B03D0BA693B691343BB61194ABD
:10170000BB699360174BDB68BB613B69DB43BA691C
:101710001340BB613B685B6803F40013002B03D0EC
:10172000BA693B691343BB610E4ABB69D360FB696D
:101730000133FB61FB690F2B7FF6A2AE00BF24379C
:10174000BD465DF8047B7047003802400038014018
:10175000000002400004024000080240000C024069
:1017600000100240003C014080B485B000AF7860BA
:101770000B467B807B681A697B881340002B02D064
:101780000123FB7301E00023FB73FB7B1846143736
:10179000BD465DF8047B704780B483B000AF7860CD
:1017A0000B467B8013467B707B78002B03D07A88B6
:1017B0007B689A6103E07B881A047B689A6100BFAA
:1017C0000C37BD465DF8047B704780B483B000AF32
:1017D00078600B467B807B685A697B881A407B88DF
:1017E0009A4204D17B881A047B689A6102E07A8865
:1017F0007B689A6100BF0C37BD465DF8047B70477B
:1018000080B582B000AF0346FB80084B5A69FB8865
:101810001340002B06D0054AFB885361FB8818460D
:10182000FFF746F900BF0837BD4680BD003C0140C8
:1018300080B586B000AF78607B68002B01D10123B2
:101840005BE27B681B6803F00103002B75D0A34BA0
:101850009B6803F00C03042B0CD0A04B9B6803F097
:101860000C03082B12D19D4B5B6803F48003B3F586
:10187000800F0BD1994B1B6803F40033002B5BD016
:101880007B685B68002B57D1012336E27B685B687D
:10189000B3F5803F06D1914B1B68904A43F48033E7
:1018A00013601DE07B685B68B3F5A02F0CD18B4BF8
:1018B0001B688A4A43F480231360884B1B68874A5D
:1018C00043F4803313600BE0844B1B68834A23F49A
:1018D00080331360814B1B68804A23F4802313609C
:1018E0007B685B68002B13D0FFF77CFC386108E055
:1018F000FFF778FC02463B69D31A642B01D9032316
:10190000FBE1764B1B6803F40033002BF0D014E0AE
:10191000FFF768FC386108E0FFF764FC02463B69AA
:10192000D31A642B01D90323E7E16C4B1B6803F442
:101930000033002BF0D100E000BF7B681B6803F090
:101940000203002B63D0654B9B6803F00C03002B54
:101950000BD0624B9B6803F00C03082B1CD15F4B30
:101960005B6803F48003002B16D15C4B1B6803F00B
:101970000203002B05D07B68DB68012B01D001231B
:10198000BBE1564B1B6823F0F8027B681B69DB0048
:10199000524913430B603AE07B68DB68002B20D090
:1019A0004F4B01221A60FFF71DFC386108E0FFF77A
:1019B00019FC02463B69D31A022B01D903239CE18F
:1019C000464B1B6803F00203002BF0D0434B1B680F
:1019D00023F0F8027B681B69DB00404913430B606E
:1019E00015E03F4B00221A60FFF7FCFB386108E06E
:1019F000FFF7F8FB02463B69D31A022B01D90323F8
:101A00007BE1364B1B6803F00203002BF0D17B68AF
:101A10001B6803F00803002B30D07B685B69002B48
:101A200016D0304B01221A60FFF7DCFB386108E06A
:101A3000FFF7D8FB02463B69D31A022B01D90323D7
:101A40005BE1264B5B6F03F00203002BF0D015E047
:101A5000244B00221A60FFF7C5FB386108E0FFF74E
:101A6000C1FB02463B69D31A022B01D9032344E18F
:101A70001A4B5B6F03F00203002BF0D17B681B68ED
:101A800003F00403002B00F0A0800023FB75134B30
:101A90001B6C03F08053002B0FD10023BB600F4B56
:101AA0001B6C0E4A43F0805313640C4B1B6C03F009
:101AB0008053BB60BB680123FB750B4B1B6803F4B1
:101AC0008073002B21D1084B1B68074A43F48073B5
:101AD0001360FFF787FB386111E000BF0038024058
:101AE00000004742800E474200700040FFF77AFB3B
:101AF00002463B69D31A022B01D90323FDE0814B37
:101B00001B6803F48073002BF0D07B689B68012B6B
:101B100006D17D4B1B6F7C4A43F0010313671CE029
:101B20007B689B68052B0CD1774B1B6F764A43F083
:101B300004031367744B1B6F734A43F0010313676D
:101B40000BE0714B1B6F704A23F0010313676E4B60
:101B50001B6F6D4A23F0040313677B689B68002B9F
:101B600015D0FFF73FFB38610AE0FFF73BFB024669
:101B70003B69D31A41F28832934201D90323BCE076
:101B8000614B1B6F03F00203002BEED014E0FFF754
:101B900029FB38610AE0FFF725FB02463B69D31AAF
:101BA00041F28832934201D90323A6E0564B1B6FC2
:101BB00003F00203002BEED1FB7D012B05D1524B2C
:101BC0001B6C514A23F0805313647B689B69002B84
:101BD00000F092804C4B9B6803F00C03082B5CD008
:101BE0007B689B69022B41D1484B00221A60FFF7AA
:101BF000F9FA386108E0FFF7F5FA02463B69D31AB3
:101C0000022B01D9032378E03F4B1B6803F00073DC
:101C1000002BF0D17B68DA697B681B6A1A437B680A
:101C20005B6A9B011A437B689B6A5B08013B1B0450
:101C30001A437B68DB6A1B06334913434B60334B03
:101C400001221A60FFF7CEFA386108E0FFF7CAFAFE
:101C500002463B69D31A022B01D903234DE02A4BDC
:101C60001B6803F00073002BF0D045E0274B0022E7
:101C70001A60FFF7B7FA386108E0FFF7B3FA0246D7
:101C80003B69D31A022B01D9032336E01E4B1B6894
:101C900003F00073002BF0D12EE07B689B69012BD1
:101CA00001D1012329E0184B5B68FB60FB6803F45A
:101CB00080027B68DB699A421CD1FB6803F03F021B
:101CC0007B681B6A9A4215D1FA6847F6C0731340C5
:101CD0007A68526A93420DD1FB6803F440327B6804
:101CE0009B6A9A4206D1FB6803F070627B68DB6AEC
:101CF0009A4201D0012300E0002318461837BD4660
:101D000080BD00BF007000400038024060004742C4
:101D100080B584B000AF786039607B68002B01D15A
:101D20000123CCE0684B1B6803F00F033A689A422A
:101D30000CD9654B3A68D2B21A70634B1B6803F03A
:101D40000F033A689A4201D00123B8E07B681B6810
:101D500003F00203002B20D07B681B6803F0040310
:101D6000002B05D0594B9B68584A43F4E0539360CD
:101D70007B681B6803F00803002B05D0534B9B685E
:101D8000524A43F460439360504B9B6823F0F00247
:101D90007B689B684D4913438B607B681B6803F02D
:101DA0000103002B44D07B685B68012B07D1474BB4
:101DB0001B6803F40033002B19D101237FE07B68FB
:101DC0005B68022B03D07B685B68032B07D13F4B1A
:101DD0001B6803F00073002B09D101236FE03B4B1C
:101DE0001B6803F00203002B01D1012367E0374B8E
:101DF0009B6823F003027B685B68344913438B6064
:101E0000FFF7F0F9F8600AE0FFF7ECF90246FB682B
:101E1000D31A41F28832934201D903234FE02B4B6E
:101E20009B6803F00C027B685B689B009A42EBD1D5
:101E3000254B1B6803F00F033A689A420CD2224BE1
:101E40003A68D2B21A70204B1B6803F00F033A684D
:101E50009A4201D0012332E07B681B6803F004033F
:101E6000002B08D0194B9B6823F4E0527B68DB6899
:101E7000164913438B607B681B6803F00803002B33
:101E800009D0124B9B6823F460427B681B69DB001E
:101E90000E4913438B6000F021F801460B4B9B6801
:101EA0001B0903F00F030A4AD35C21FA03F3094A22
:101EB0001360094B1B681846FFF750F900231846BA
:101EC0001037BD4680BD00BF003C024000380240D4
:101ED000C42E00082000002024000020F0B585B0AA
:101EE00000AF00237B600023FB6000233B600023E6
:101EF000BB60504B9B6803F00C03042B07D0082BEE
:101F000008D0002B40F08D804B4BBB608CE04B4BDE
:101F1000BB6089E0474B5B6803F03F037B60454B48
:101F20005B6803F48003002B23D0424B5B689B0962
:101F30004FF0000440F2FF114FF0000203EA0105E8
:101F400004EA02063D4A02FB06F1002202FB05F20A
:101F50000A443A49A5FB0101531819467B684FF022
:101F600000041A462346FEF78BF903460C46FB6035
:101F700049E0304B5B689B094FF0000440F2FF11D1
:101F80004FF0000203EA010504EA02062946324640
:101F90004FF000034FF00004540144EAD1644B01B8
:101FA00019462246491B62EB06024FF000034FF030
:101FB0000004940144EA91648B015B1A64EB02040F
:101FC0004FF000014FF00002E20042EA5372D900E4
:101FD0000B4614465B1944EB06044FF000014FF02A
:101FE0000002A20242EA935299020B461446184696
:101FF00021467B684FF000041A462346FEF740F95D
:1020000003460C46FB600B4B5B681B0C03F00303A1
:1020100001335B003B60FA683B68B2FBF3F3BB60E3
:1020200002E0054BBB6000BFBB6818461437BD46D5
:10203000F0BD00BF003802400024F40040787D016C
:1020400080B582B000AF78607B68002B01D101239E
:102050001DE07B6893F83D30DBB2002B06D17B6836
:10206000002283F83C207868FEF762FF7B6802223A
:1020700083F83D207B681A687B6804331946104654
:1020800000F0E4F87B68012283F83D200023184625
:102090000837BD4680BD80B485B000AF78607B68EE
:1020A0001B68DA687B681B6842F00102DA607B68B3
:1020B0001B689B6803F00703FB60FB68062B07D0D7
:1020C0007B681B681A687B681B6842F001021A6013
:1020D000002318461437BD465DF8047B704780B571
:1020E00084B000AF786039607B6893F83C30012B96
:1020F00001D10223A6E07B68012283F83C207B68A3
:10210000022283F83D207B681B689B68FB60FB68AC
:1021100023F07703FB60FB6823F47F43FB607B685D
:102120001B68FA689A603B681B68402B67D0402B9D
:102130000BD8102B73D0102B02D8002B6FD078E067
:10214000202B6CD0302B6AD073E0702B0DD0702B0D
:1021500004D8502B33D0602B41D06AE0B3F5805FB8
:1021600066D0B3F5005F17D063E07B6818683B6802
:1021700099683B685A683B68DB6800F061F97B68E6
:102180001B689B68FB60FB6843F07703FB607B6820
:102190001B68FA689A604CE07B6818683B6899682D
:1021A0003B685A683B68DB6800F04AF97B681B684B
:1021B0009A687B681B6842F480429A6039E07B68C9
:1021C00018683B6859683B68DB681A4600F0BEF83F
:1021D0007B681B685021184600F017F929E07B68DE
:1021E00018683B6859683B68DB681A4600F0DDF800
:1021F0007B681B686021184600F007F919E07B68CE
:1022000018683B6859683B68DB681A4600F09EF81E
:102210007B681B684021184600F0F7F809E07B68EE
:102220001A683B681B681946104600F0EEF800E09B
:1022300000BF7B68012283F83D207B68002283F881
:102240003C20002318461037BD4680BD80B485B0C1
:1022500000AF786039607B681B68FB607B68344A3C
:1022600093420FD07B68B3F1804F0BD07B68314A2B
:10227000934207D07B68304A934203D07B682F4A51
:10228000934208D1FB6823F07003FB603B685B68F6
:10229000FA681343FB607B68254A93421BD07B6836
:1022A000B3F1804F17D07B68224A934213D07B68EA
:1022B000214A93420FD07B68204A93420BD07B681F
:1022C0001F4A934207D07B681E4A934203D07B6823
:1022D0001D4A934208D1FB6823F44073FB603B68BE
:1022E000DB68FA681343FB60FB6823F080023B68FD
:1022F0005B691343FB607B68FA681A603B689A6805
:102300007B68DA623B681A687B689A627B68084A75
:10231000934203D13B681A697B681A637B68012288
:102320005A6100BF1437BD465DF8047B704700BF9B
:10233000000001400004004000080040000C004084
:1023400000400140004401400048014080B487B093
:1023500000AFF860B9607A60FB681B6A7B61FB685C
:102360001B6A23F00102FB681A62FB689B693B61F0
:102370003B6923F0F0033B617B681B013A6913431F
:102380003B617B6923F00A037B617A69BB68134375
:102390007B61FB683A699A61FB687A691A6200BFDF
:1023A0001C37BD465DF8047B704780B487B000AF32
:1023B000F860B9607A60FB681B6A23F01002FB6862
:1023C0001A62FB689B697B61FB681B6A3B617B69E6
:1023D00023F470437B617B681B037A6913437B6141
:1023E0003B6923F0A0033B61BB681B013A691343BF
:1023F0003B61FB687A699A61FB683A691A6200BFBF
:102400001C37BD465DF8047B704780B485B000AFD3
:10241000786039607B689B68FB60FB6823F0700321
:10242000FB603A68FB68134343F00703FB607B687B
:10243000FA689A6000BF1437BD465DF8047B7047A8
:1024400080B487B000AFF860B9607A603B60FB6829
:102450009B687B617B6923F47F437B613B681A0245
:102460007B681A43BB6813437A6913437B61FB683B
:102470007A699A6000BF1C37BD465DF8047B7047DF
:1024800080B485B000AF786039607B6893F83C30E9
:10249000012B01D1022350E07B68012283F83C200C
:1024A0007B68022283F83D207B681B685B68FB60C9
:1024B0007B681B689B68BB60FB6823F07003FB6054
:1024C0003B681B68FA681343FB607B681B68FA680B
:1024D0005A607B681B681C4A934218D07B681B6853
:1024E000B3F1804F13D07B681B68184A93420ED01B
:1024F0007B681B68164A934209D07B681B68154AA3
:10250000934204D07B681B68134A93420CD1BB688A
:1025100023F08003BB603B685B68BA681343BB6011
:102520007B681B68BA689A607B68012283F83D204B
:102530007B68002283F83C20002318461437BD46F0
:102540005DF8047B704700BF0000014000040040BC
:1025500000080040000C004000400140014B18689A
:10256000704700BF2C00002070B50D4E0D4CA41B11
:10257000A4100025A54209D10B4E0C4C00F062FCC2
:10258000A41BA4100025A54205D170BD56F8253026
:1025900098470135EEE756F8253098470135F2E7C0
:1025A000102F0008102F0008102F0008142F00080B
:1025B00002440346934200D1704703F8011BF9E738
:1025C00038B5134B1C68A36B7BB9182000F04CF88E
:1025D000104A114BA063C0E90023104B83600B230A
:1025E000838101220023C0E90423A16B0C480A69FE
:1025F0004B690C4C504304FB0300A2FB042303442F
:10260000541C43F10005C1E9044525F0004038BDE4
:102610002C0000200E33CDAB34126DE6ECDE05004D
:102620002DF451582D7F954C0EB400B59CB01DABC8
:10263000029006906FF00041094807910491094902
:1026400053F8042B05910068019302A900F016F9D4
:10265000029B00221A701CB05DF804EB03B07047B7
:102660002C0000200802FFFF024B0146186800F012
:1026700051B800BF2C00002038B50546002945D0D0
:1026800051F8043C0C1F002BB8BFE41800F0AAFB63
:102690001F4A1368104633B9636014602846BDE8CA
:1026A000384000F0A0BBA3420CD9216862189342C5
:1026B00004BF1A685B68636004BF5218226004603C
:1026C000ECE713465A680AB1A242FAD919685818B9
:1026D000A0420BD120680144581882421960DDD114
:1026E000106852685A6001441960D7E702D90C2378
:1026F0002B60D3E7206821188A4204BF1168526812
:10270000626004BF091821605C60C7E738BD00BF84
:10271000CC00002070B5CD1C25F0030508350C2D2C
:1027200038BF0C25002D064601DBA94203D90C2336
:102730003360002070BD00F055FB214A146821462B
:1027400091B9204C23681BB9304600F017FB20607C
:102750002946304600F012FB431C24D10C23336081
:10276000304600F040FBE4E70B685B1B18D40B2BF2
:102770000FD90B60CD50CC18304600F034FB04F17B
:102780000B00231D20F00700C31AD3D05A42E25099
:10279000D0E78C424B6816BF636013600C46EBE7D2
:1027A0000C464968CCE7C41C24F00304A04205D0C1
:1027B000211A304600F0E2FA0130CFD02560DBE785
:1027C000CC000020D00000202DE9F0478E689E420A
:1027D00082460C469046994637D88A8912F4906F03
:1027E00031D0256809696F1A6569022305EB450533
:1027F00095FBF3F509F101033B449D4238BF1D46AB
:10280000530530D52946FFF785FF064650B90C23FE
:10281000CAF80030A38943F04003A3814FF0FF3092
:10282000BDE8F0873A46216900F0B8FAA38923F49D
:10283000906343F08003A381266165613E44ED1BF4
:102840002660A5604E464E4500D94E46324641466A
:10285000206800F0AEFAA3689B1BA36023681E44A7
:1028600026600020DCE72A4600F0BEFA0646002873
:10287000E2D121695046FFF7FFFEC8E72DE9F04F8E
:102880001D468B891F069DB080460C4616460FD507
:102890000B696BB94021FFF73DFF2060206128B92B
:1028A0000C23C8F800304FF0FF30C8E040236361CC
:1028B0000023099320238DF8293030238DF82A3006
:1028C00003954FF0010B37463D4615F8013B0BB120
:1028D000252B3ED1B7EB060A0BD053463246214694
:1028E0004046FFF771FF013000F0A480099B53447C
:1028F00009933B78002B00F09D8000234FF0FF32BE
:10290000CDE90523049307938DF853301A932F468E
:10291000052217F8011B5048FDF762FC049BD0B953
:10292000D90644BF20228DF853201A0744BF2B221A
:102930008DF853202A782A2A15D0079A2F4600208E
:102940000A25394611F8013B303B092B4DD9B8B166
:102950000FE02F46B8E7404A801A0BFA00F0184300
:1029600004903D46D3E7039A111D12680391002A93
:1029700001DB079204E0524243F002030792049302
:102980003B782E2B0CD17B782A2B33D1039B1A1D3D
:102990001B680392002BB8BF4FF0FF33023705933B
:1029A0002E4D397803222846FDF71AFC38B1402312
:1029B000401B03FA00F0049B03430137049339786A
:1029C00027488DF8281006227E1CFDF709FC0028F8
:1029D00038D0244B13BB039B073323F00703083382
:1029E0000393099B4B4409936DE705FB02320120D9
:1029F0000F46A6E700230137059319460A253846F6
:102A000010F8012B303A092A03D9002BC8D00591C0
:102A1000C6E705FB012101230746F0E703AB00935E
:102A20002246114B04A94046AFF30080B0F1FF3FAE
:102A30008146D6D1A3895B063FF535AF09981DB015
:102A4000BDE8F08F03AB00932246074B04A9404634
:102A500000F082F8EAE700BFD42E0008DA2E000862
:102A6000DE2E000800000000C92700082DE9F0470D
:102A700091461F468A680B69DDF820809342B8BFF3
:102A80001346C9F8003091F8432006460C4612B1AF
:102A90000133C9F800302368990642BFD9F80030E5
:102AA0000233C9F80030256815F0060507D104F196
:102AB000190AE368D9F800209B1AAB4228DC94F885
:102AC00043302268003318BF012392062DD404F14D
:102AD000430239463046C047013020D02368E568BC
:102AE000D9F8002003F00603042B08BFAD1AA36831
:102AF00022690CBF25EAE57500259342C4BF9B1AE5
:102B0000ED184FF000091A344D451AD1002008E0A5
:102B10000123524639463046C047013003D14FF0B9
:102B2000FF30BDE8F0870135C3E7E1185A1C3020BB
:102B300081F84300224494F8451082F84310023390
:102B4000C5E70123224639463046C0470130E6D06A
:102B500009F10109D8E700002DE9F04301F1430C28
:102B60000C46097E85B06E291746064698460C9A93
:102B700000F0B38022D8632936D00AD8002900F0AB
:102B8000B980582900F0838004F1420584F842108E
:102B900032E0642901D06929F6D12068136805065E
:102BA00003F104012AD51B681160002B03DA2D22E2
:102BB0005B4284F843206F480A2239E0732900F011
:102BC0009D8008D86F2920D07029DDD1236843F07B
:102BD0002003236003E0752917D07829D4D1782306
:102BE00084F84530644855E01368191D1B6811606E
:102BF00004F1420584F8423001238CE01B68116027
:102C000010F0400F18BF1BB2CFE713682568181DDE
:102C10001060280601D51B6802E06806FBD51B88FA
:102C200054486F2914BF0A220822002184F8431057
:102C30006568A560002DC0F29580216821F004012F
:102C40002160002B3DD1002D40F08E806546082A82
:102C50000BD12368DB0708D5236962689A42DEBF7F
:102C6000302305F8013C05F1FF35ACEB050323618A
:102C7000CDF800803B4603AA21463046FFF7F6FE1A
:102C800001304DD14FF0FF3005B0BDE8F083394839
:102C900084F84510136821681D1D1B6815600A061D
:102CA0000BD5CA0744BF41F0200121601BB922683F
:102CB00022F0200222601022B7E74D0648BF9BB2E7
:102CC000EFE76546B3FBF2F102FB1133C35C05F895
:102CD000013D0B460029F5D1B9E713682568616904
:102CE000181D106028061B6801D5196002E06A06ED
:102CF000FBD51980002323616546B9E71368191DC8
:102D000011601D68626800212846FDF769FA08B164
:102D1000401B606063682361002384F84330A7E7A9
:102D200023692A4639463046C0470130AAD0236875
:102D30009B0713D4E068039B9842B8BF1846A3E7EB
:102D400001234A4639463046C04701309AD0013502
:102D5000E368039A9B1AAB42F2DCEBE7002504F12F
:102D60001909F5E7002BACD1037884F8423004F15F
:102D700042056CE7E52E0008F62E000838B5064C33
:102D80000023054608462360FEF750F9431C02D194
:102D9000236803B12B6038BD1801002010B5431E15
:102DA0000A44914200D110BD11F8014B03F8014FC4
:102DB000F7E7884210B501EB020307D8421E99429B
:102DC0000AD011F8014B02F8014FF8E78342F5D918
:102DD0008118D21AD34200D110BD13F8014D01F869
:102DE000014DF7E770477047F8B5074614460E46A1
:102DF00021B91146BDE8F840FFF78CBC22B9FFF7B6
:102E00003BFC25462846F8BD00F014F8A0420FD23E
:102E100021463846FFF77EFC05460028F2D03146B1
:102E20002246FFF7BBFF31463846FFF725FCE9E7AE
:102E30003546E7E751F8043C181F002BBCBF0B5880
:102E4000C0187047F8B500BFF8BC08BC9E46704774
:0C2E5000F8B500BFF8BC08BC9E467047F7
:102E5C00426172616E2054616E726976657264694A
:102E6C00000000005475726E696B652055796775AA
:102E7C006C616D61000000004261736C61746120D3
:102E8C00426173696E697A00596F6C637520536186
:102E9C00796973693A20256400000000436F756EF0
:102EAC007465723A25640000596F6C637520536128
:102EBC00796973693A256400000000000000000085
:102ECC000102030406070809232D302B2000686C2F
:102EDC004C00656667454647003031323334353631
:102EEC00373839414243444546003031323334356A
:0C2EFC0036373839616263646566000097
:082F0800A8D3FF7F01000000C7
:042F1000C5010008EF
:042F1400A10100080F
:102F18002000000000000000000000000000000089
:102F28002000000000000000000000000000000079
:102F38000024F40010000000010000003000002010
:102F48000000000000000000000000000000000079
:102F58000000000000000000000000000000000069
:102F68000000000000000000000000000000000059
:102F78000000000000000000000000000000000049
:102F88000000000000000000000000000000000039
:102F98000000000000000000000000000000000029
:04000005080010C51A
:00000001FF
